:100000000C945D000C9485000C9485000C94850084
:100010000C9485000C9485000C9485000C9485004C
:100020000C9485000C9485000C9485000C9485003C
:100030000C9485000C9485000C9485000C9485002C
:100040000C94B4020C9485000C9482020C945C0213
:100050000C9485000C9485000C9485000C9485000C
:100060000C9485000C94850000000008000201003B
:100070000003040700000000000000000000000072
:10008000250028002B0000000000240027002A0083
:10009000040404040404040402020202020203032E
:1000A0000303030301020408102040800102040836
:1000B00010200102040810206E0511241FBECFEF8E
:1000C000D8E0DEBFCDBF11E0A0E0B1E0E6E3F0E1B3
:1000D00002C005900D92A432B107D9F721E0A4E245
:1000E000B1E001C01D92AF3EB207E1F710E0CDE5EF
:1000F000D0E004C02197FE010E94FF07CC35D10754
:10010000C9F70E94FE020C9419080C94000090E0BC
:10011000FC01EC55FF4F2491FC01E057FF4F849107
:10012000882399F090E0880F991FFC01EA57FF4F50
:10013000A591B491FC01E458FF4F859194918FB73C
:10014000F894EC91E22BEC938FBF0895CF92DF925D
:10015000EF92FF920F931F93CF93DF936C017A017D
:100160008B01C0E0D0E0CE15DF0589F0D8016D919C
:100170008D01D601ED91FC910190F081E02DC60139
:100180000995892B11F47E0102C02196ECCFC7019D
:10019000DF91CF911F910F91FF90EF90DF90CF9063
:1001A0000895089580E090E00895FC01538D448DFA
:1001B000252F30E0842F90E0821B930B541710F012
:1001C000CF96089501970895FC01918D828D98171F
:1001D00061F0828DDF01A80FB11D5D968C91928D2B
:1001E0009F5F9F73928F90E008958FEF9FEF089528
:1001F000FC01918D828D981731F0828DE80FF11DF1
:10020000858D90E008958FEF9FEF0895FC01918D0B
:10021000228D892F90E0805C9F4F821B91098F7304
:10022000992708958EE291E00E94060121E0892B32
:1002300009F420E0822F0895FC01848DDF01A80FCE
:10024000B11DA35ABF4F2C91848D90E001968F73FE
:100250009927848FA689B7892C93A089B1898C911D
:1002600080648C93938D848D981306C00288F389E3
:10027000E02D80818F7D80830895EF92FF920F9310
:100280001F93CF93DF93EC0181E0888F9B8D8C8D42
:10029000981305C0E889F989808185FD24C0F62E70
:1002A0000B8D10E00F5F1F4F0F731127E02E8C8D09
:1002B000E8120CC00FB607FCFACFE889F9898081F3
:1002C00085FFF5CFCE010E941C01F1CF8B8DFE0181
:1002D000E80FF11DE35AFF4FF0820B8FEA89FB898B
:1002E0008081806207C0EE89FF896083E889F9898F
:1002F00080818064808381E090E0DF91CF911F91C5
:100300000F91FF90EF900895CF93DF93EC01888DCC
:100310008823C9F0EA89FB89808185FD05C0A88909
:10032000B9898C9186FD0FC00FB607FCF5CF80818F
:1003300085FFF2CFA889B9898C9185FFEDCFCE01D9
:100340000E941C01E7CFDF91CF91089580E090E0FB
:10035000892B29F00E94120181110C94000008954C
:1003600090E0FC01E859FF4F3491FC01EC55FF4F40
:100370002491FC01E057FF4FE491EE2309F43BC0C8
:10038000332339F1333091F038F43130A9F0323081
:1003900001F584B58F7D12C0373091F03830A1F06F
:1003A0003430B9F4809180008F7D03C0809180004B
:1003B0008F77809380000DC084B58F7784BD09C08E
:1003C0008091B0008F7703C08091B0008F7D8093C3
:1003D000B000F0E0EE0FFF1FE458FF4FA591B4917D
:1003E0008FB7F894EC91611103C020952E2301C0C2
:1003F0002E2B2C938FBF08951F93CF93DF93182F2D
:10040000EB010E948700209711F460E004C0CF3F09
:10041000D10539F461E0812FDF91CF911F910C94C8
:10042000B001E12FF0E0E859FF4FE491E330F9F03B
:1004300048F4E130B9F0E230A1F584B5806284BDC2
:10044000C8BD34C0E730E9F0E83019F1E43049F5CF
:1004500080918000806280938000D0938B00C09355
:100460008A0024C084B5806884BDC7BD1FC0809148
:100470008000806880938000D0938900C0938800BA
:1004800015C08091B00080688093B000C093B30025
:100490000DC08091B00080628093B000C093B40022
:1004A00005C0C038D1050CF0B5CFAFCFDF91CF91EB
:1004B0001F9108950E9414081F920F920FB60F9279
:1004C00011242F933F934F935F936F937F938F9359
:1004D0009F93AF93BF93EF93FF938EE291E00E94BF
:1004E0001C01FF91EF91BF91AF919F918F917F91EF
:1004F0006F915F914F913F912F910F900FBE0F9091
:100500001F9018951F920F920FB60F9211242F93E0
:100510008F939F93EF93FF93E0913E01F0913F0102
:100520008081E0914401F091450182FD12C09081EB
:10053000809147018F5F8F7320914801821751F09E
:10054000E0914701F0E0E25DFE4F958F8093470117
:1005500001C08081FF91EF919F918F912F910F901A
:100560000FBE0F901F9018951F920F920FB60F920B
:1005700011242F933F938F939F93AF93BF938091B9
:10058000290190912A01A0912B01B0912C01309169
:10059000280123E0230F2D3720F40196A11DB11D62
:1005A00005C026E8230F0296A11DB11D2093280146
:1005B0008093290190932A01A0932B01B0932C01E1
:1005C0008091240190912501A0912601B0912701ED
:1005D0000196A11DB11D8093240190932501A09344
:1005E0002601B0932701BF91AF919F918F913F91C9
:1005F0002F910F900FBE0F901F901895CF93DF9300
:1006000000D000D0CDB7DEB7789484B5826084BDC9
:1006100084B5816084BD85B5826085BD85B5816006
:1006200085BD80916E00816080936E001092810084
:10063000809181008260809381008091810081603F
:100640008093810080918000816080938000809100
:10065000B10084608093B1009091B000916090935C
:10066000B00090917A00946090937A0090917A0013
:10067000926090937A0090917A00916090937A00C2
:1006800090917A00906890937A001092C100E09166
:100690003E01F0913F0182E08083E0913A01F091C8
:1006A0003B011082E0913C01F0913D0180E18083AB
:1006B00010924601E0914201F091430186E080836F
:1006C000E0914001F0914101908190619083E0912F
:1006D0004001F0914101908198609083E091400148
:1006E000F0914101908190689083E0914001F091F8
:1006F000410190819F7D90838DE00E94870060E0A2
:100700008DE00E94B00101E080912D01811115C0A2
:100710008EE291E00E940601181619062CF48EE272
:1007200091E00E94E400182F123311F400932D0180
:100730008EE291E00E948401E7CF89E00E94870069
:1007400088E00E9487008BE00E9487008AE00E9478
:10075000870086E00E94870085E00E94870060E0B5
:1007600070E086E00E94FC0160E070E085E00E949D
:10077000FC01E2E1F1E03DECE32E31E0F32ED701A4
:10078000808132968E3008F08E508770806480931E
:100790007C0080917A00806480937A0080917A0056
:1007A00086FDFCCF809178002091790090E0922B1B
:1007B0008D939D9321E0E831F20711F79EE1A92E78
:1007C00091E0B92E28E1C22E21E0D22E0DEC11E0ED
:1007D000D501ED91FD915D01D6018D919D916D0148
:1007E000E81BF90BC9F0D8012D913C91A901330FF9
:1007F000660B770B9A01AB01281B390B4109510994
:10080000A8EEB3E00E94EC079F0140E050E00E9498
:10081000CD0737FD0AC002C020E030E0293EB3E03A
:100820003B072CF028EE33E002C020E030E0F80176
:10083000219331938F01F4E2AF16F1E0BF0641F648
:10084000412C512C320110E0E0E0F0E0812C912CA1
:100850005401D701CD90DD907D01BBE0CB16D104D2
:1008600024F41C141D046CF401C011E0D601A30192
:1008700092010E94F707860E971EA81EB91EEC0D66
:10088000FD1D28EE420E23E0521E611C711C88EBF8
:1008900048168BE0580661047104D9F611110AC09C
:1008A0008091CB019091CC01883E934084F060ED23
:1008B00077E00FC09F0140E050E0C501B4010E9405
:1008C000AB07B9013093CC012093CB0102C060E0AB
:1008D00070E0685E7340072E000C880B990B0E9435
:1008E000B2066B017C016093E7017093E80180938D
:1008F000E9019093EA016093E3017093E40180932E
:10090000E5019093E6012091DB013091DC014091FB
:10091000DD015091DE016091DF017091E001809175
:10092000E1019091E2010E949C0569837A838B83A7
:100930009C836093DF017093E0018093E1019093C9
:10094000E2012091D7013091D8014091D901509115
:10095000DA01C701B6010E949B054B015C0160935F
:10096000D3017093D4018093D5019093D6012DECDF
:100970003CEC4CE050E4C701B6010E943E072B015D
:100980003C0120E030E0A90169817A818B819C8162
:100990000E943E079B01AC01C301B2010E949C056D
:1009A0002B013C0120E030E0A901C501B4010E9407
:1009B0003E079B01AC01C301B2010E949C0520E0EF
:1009C00030E040EA51E40E9408064B015C0160936C
:1009D000EB017093EC018093ED019093EE0189811E
:1009E0009A81AB81BC818093DB019093DC01A09361
:1009F000DD01B093DE01C092D701D092D801E09220
:100A0000D901F092DA0120E030E048E453E4C50176
:100A1000B4010E949C050E947A066B017C018B0147
:100A2000A501940160E070E088E493E40E949B05D6
:100A30000E947A069B01D7FC09C00F3F110519F0EF
:100A400014F00FEF10E037FF05C00DC077FD1AC09E
:100A500000E010E07B016F3F710539F034F0EE24C7
:100A6000EA94F12C02C0E12CF12C0115110561F082
:100A700061E089E00E94B00160E088E00E94B0017E
:100A8000B8010CC0E12CF12C60E089E00E94B001BB
:100A900061E088E00E94B00160E070E085E00E94C3
:100AA000FC01E114F10451F061E08BE00E94B0011F
:100AB00060E08AE00E94B001B7010AC060E08BE00C
:100AC0000E94B00161E08AE00E94B00160E070E045
:100AD00086E00E94FC010E94A6014BCEEEE2F1E00E
:100AE0001382128288EE93E0A0E0B0E084839583C5
:100AF000A683B78384E091E09183808385EC90E0C6
:100B00009587848784EC90E09787868780EC90E0D7
:100B1000918B808B81EC90E0938B828B82EC90E0C8
:100B2000958B848B86EC90E0978B868B118E128E42
:100B3000138E148E08955058BB27AA270E94B30520
:100B40000C9404070E94F60638F00E94FD0620F07F
:100B500039F49F3F19F426F40C94F3060EF4E09553
:100B6000E7FB0C94ED06E92F0E94150758F3BA171E
:100B7000620773078407950720F079F4A6F50C94B3
:100B800037070EF4E0950B2EBA2FA02D0B01B901FB
:100B900090010C01CA01A0011124FF27591B99F0F3
:100BA000593F50F4503E68F11A16F040A22F232FFF
:100BB000342F4427585FF3CF469537952795A7954F
:100BC000F0405395C9F77EF41F16BA0B620B730BF6
:100BD000840BBAF09150A1F0FF0FBB1F661F771F67
:100BE000881FC2F70EC0BA0F621F731F841F48F41C
:100BF000879577956795B795F7959E3F08F0B0CFA5
:100C00009395880F08F09927EE0F9795879508958B
:100C10000E941C060C9404070E94FD0658F00E94D6
:100C2000F60640F029F45F3F29F00C94ED065111CF
:100C30000C9438070C94F3060E94150768F3992367
:100C4000B1F3552391F3951B550BBB27AA276217C8
:100C50007307840738F09F5F5F4F220F331F441FD5
:100C6000AA1FA9F335D00E2E3AF0E0E832D0915009
:100C70005040E695001CCAF72BD0FE2F29D0660FF6
:100C8000771F881FBB1F261737074807AB07B0E839
:100C900009F0BB0B802DBF01FF2793585F4F3AF03F
:100CA0009E3F510578F00C94ED060C9438075F3F99
:100CB000E4F3983ED4F3869577956795B795F795C5
:100CC0009F5FC9F7880F911D9695879597F90895AD
:100CD000E1E0660F771F881FBB1F62177307840749
:100CE000BA0720F0621B730B840BBA0BEE1F88F758
:100CF000E09508950E9481066894B1110C9438071C
:100D000008950E941D0788F09F5798F0B92F9927E2
:100D1000B751B0F0E1F0660F771F881F991F1AF0E6
:100D2000BA95C9F714C0B13091F00E943707B1E00D
:100D300008950C943707672F782F8827B85F39F00C
:100D4000B93FCCF3869577956795B395D9F73EF47F
:100D500090958095709561957F4F8F4F9F4F089527
:100D6000E89409C097FB3EF4909580957095619545
:100D70007F4F8F4F9F4F9923A9F0F92F96E9BB27FB
:100D80009395F695879577956795B795F111F8CF77
:100D9000FAF4BB0F11F460FF1BC06F5F7F4F8F4FE2
:100DA0009F4F16C0882311F096E911C0772321F0D8
:100DB0009EE8872F762F05C0662371F096E8862F70
:100DC00070E060E02AF09A95660F771F881FDAF7C7
:100DD000880F9695879597F9089597F99F6780E80A
:100DE00070E060E008959FEF80EC089500240A947D
:100DF0001616170618060906089500240A941216F6
:100E00001306140605060895092E0394000C11F428
:100E1000882352F0BB0F40F4BF2B11F460FF04C0D5
:100E20006F5F7F4F8F4F9F4F089557FD9058440F2E
:100E3000551F59F05F3F71F04795880F97FB991F39
:100E400061F09F3F79F087950895121613061406F6
:100E5000551FF2CF4695F1DF08C016161706180683
:100E6000991FF1CF86957105610508940895E8945E
:100E7000BB2766277727CB0197F908950E94510772
:100E80000C9404070E94F60638F00E94FD0620F03C
:100E9000952311F00C94ED060C94F30611240C9498
:100EA00038070E94150770F3959FC1F3950F50E026
:100EB000551F629FF001729FBB27F00DB11D639F0C
:100EC000AA27F00DB11DAA1F649F6627B00DA11DB2
:100ED000661F829F2227B00DA11D621F739FB00D58
:100EE000A11D621F839FA00D611D221F749F3327C8
:100EF000A00D611D231F849F600D211D822F762F61
:100F00006A2F11249F5750409AF0F1F088234AF03D
:100F1000EE0FFF1FBB1F661F771F881F91505040A9
:100F2000A9F79E3F510580F00C94ED060C9438070C
:100F30005F3FE4F3983ED4F3869577956795B79530
:100F4000F795E7959F5FC1F7FE2B880F911D96954A
:100F5000879597F90895A1E21A2EAA1BBB1BFD01E4
:100F60000DC0AA1FBB1FEE1FFF1FA217B307E40788
:100F7000F50720F0A21BB30BE40BF50B661F771FE0
:100F8000881F991F1A9469F76095709580959095C0
:100F90009B01AC01BD01CF010895052E97FB1EF406
:100FA00000940E94E40757FD07D00E94AB0707FC9E
:100FB00003D04EF40C94E40750954095309521955C
:100FC0003F4F4F4F5F4F0895909580957095619575
:100FD0007F4F8F4F9F4F08950E940508A59F900D4A
:100FE000B49F900DA49F800D911D11240895B7FF0B
:100FF0000C94EC070E94EC07821B930B0895EE0FF4
:10100000FF1F0590F491E02D0994A29FB001B39FBA
:10101000C001A39F700D811D1124911DB29F700D01
:10102000811D1124911D089581E090E0F8940C94A5
:061030001908F894FFCF3F
:10103600000000003D01A600D50084010601E40081
:10104600F8000E000F001000200020002000BC0257
:04105600BC02520383
:107E0000112484B714BE81FFF0D085E080938100F7
:107E100082E08093C00088E18093C10086E0809377
:107E2000C20080E18093C4008EE0C9D0259A86E02C
:107E300020E33CEF91E0309385002093840096BBD3
:107E4000B09BFECF1D9AA8958150A9F7CC24DD24C4
:107E500088248394B5E0AB2EA1E19A2EF3E0BF2EE7
:107E6000A2D0813461F49FD0082FAFD0023811F036
:107E7000013811F484E001C083E08DD089C08234E0
:107E800011F484E103C0853419F485E0A6D080C0E4
:107E9000853579F488D0E82EFF2485D0082F10E0AE
:107EA000102F00270E291F29000F111F8ED06801E7
:107EB0006FC0863521F484E090D080E0DECF843638
:107EC00009F040C070D06FD0082F6DD080E0C81688
:107ED00080E7D80618F4F601B7BEE895C0E0D1E017
:107EE00062D089930C17E1F7F0E0CF16F0E7DF06D8
:107EF00018F0F601B7BEE89568D007B600FCFDCFD4
:107F0000A601A0E0B1E02C9130E011968C91119780
:107F100090E0982F8827822B932B1296FA010C0160
:107F200087BEE89511244E5F5F4FF1E0A038BF0790
:107F300051F7F601A7BEE89507B600FCFDCF97BE46
:107F4000E89526C08437B1F42ED02DD0F82E2BD052
:107F50003CD0F601EF2C8F010F5F1F4F84911BD097
:107F6000EA94F801C1F70894C11CD11CFA94CF0C13
:107F7000D11C0EC0853739F428D08EE10CD085E9AC
:107F80000AD08FE07ACF813511F488E018D01DD067
:107F900080E101D065CF982F8091C00085FFFCCF94
:107FA0009093C60008958091C00087FFFCCF809118
:107FB000C00084FD01C0A8958091C6000895E0E648
:107FC000F0E098E1908380830895EDDF803219F02E
:107FD00088E0F5DFFFCF84E1DECF1F93182FE3DFCA
:107FE0001150E9F7F2DF1F91089580E0E8DFEE27F6
:047FF000FF270994CA
:027FFE00040479
:0400000300007E007B
:00000001FF
